:020000040800F2
:1000000060060020450100084D0100084F0100086E
:1000100000000000000000000000000000000000E0
:100020000000000000000000000000005101000876
:100030000000000000000000530100085501000806
:100040005701000857010008570100085701000830
:100050005701000857010008570100085701000820
:100060005701000857010008570100085701000810
:100070005701000857010008570100085701000800
:100080005701000857010008000000005701000850
:1000900057010008570100085701000857010008E0
:1000A00057010008570100085701000857010008D0
:1000B00057010008000000005701000800F002F896
:1000C00000F030F80CA030C8083824182D18671E2E
:1000D000A246AB4654465D46AC4201D100F022F840
:1000E0007E460F3EB6460FCC0126334200D0FB1AA7
:1000F0003343A246AB4618472401000034010000F8
:100100000023002400250026103A01D378C1FBD833
:10011000520700D330C100D50B6070471FB51FBD1B
:1001200010B510BD00F032F81146FFF7F7FF00F0F0
:100130005DF800F04AF803B4FFF7F2FF03BC00F0EB
:100140004DF800000748804707480047FEE7FEE7F4
:10015000FEE7FEE7FEE7FEE704480549054A064BD1
:1001600070470000EB010008BD000008600000209F
:100170006006002060020020600200207047704787
:100180007047000000487047000000207546FFF7E8
:10019000F9FFAE46050069465346C008C0008546D3
:1001A00018B020B5FFF7D8FF60BCB6460026002780
:1001B000C0C5C0C5C0C5C0C5C0C5C0C5C0C5C0C517
:1001C000403D490849008D46704710B50446C04679
:1001D000C0462046FFF7AFFF10BD000001491820C0
:1001E000ABBEFEE726000200704770470120C10445
:1001F000084A13680B4313600103074802680A4367
:1002000002608169402211438161816A11438162E8
:10021000F7E7C04614100240000800482C0200080E
:0C02200000000020600600000001000843
:0400000508000145A9
:00000001FF
